:020000040800F2
:10000000E00B0020910100087F1E0008011C000881
:100010007D1E0008C70600087D25000800000000BE
:10002000000000000000000000000000F3210008B4
:10003000C10A000800000000F12100084922000860
:10004000AB010008AB010008AB010008AB010008E0
:10005000AB010008AB010008AB010008AB010008D0
:10006000AB010008AB010008AB010008AB010008C0
:10007000AB010008AB010008AB010008AB010008B0
:10008000AB010008AB010008AB010008AB010008A0
:10009000AB010008AB010008AB010008AB01000890
:1000A000AB010008AD220008AB010008AB0100085D
:1000B000AB010008AB010008AB010008AB01000870
:1000C000AB010008AB010008AB010008AB01000860
:1000D000AB010008AB010008AB010008AB01000850
:1000E000C30A0008AB010008AB01000800F002F8E9
:1000F00000F03FF80AA090E8000C82448344AAF183
:100100000107DA4501D100F034F8AFF2090EBAE880
:100110000F0013F0010F18BFFB1A43F0010318473B
:1001200088470000A8470000103A24BF78C878C16B
:10013000FAD8520724BF30C830C144BF04680C60ED
:10014000704700000023002400250026103A28BF35
:1001500078C1FBD8520728BF30C148BF0B60704739
:10016000642900F08580002070471FB51FBD10B5C1
:1001700010BD00F06EFA1146FFF7F7FF02F016FA15
:1001800000F08CFA03B4FFF7F2FF03BC00F094FA1E
:100190000948804709480047FEE7FEE7FEE7FEE71B
:1001A000FEE7FEE7FEE7FEE7FEE7FEE70448054957
:1001B000054A064B70470000AB220008ED0000081E
:1001C000E0050020E00B0020E0070020E007002011
:1001D000B2F120030AD5C2F1200320FA02F001FA9D
:1001E00003F321FA02F140EA0300704721FA03F019
:1001F0004FF00001704700000FB41CB5074B06AA72
:100200007B4469460090059800F00BFA002069468F
:1002100000F01AFA1CBC5DF814FB00004504000055
:1002200070B5044685690068C10601D5302600E036
:100230002026C00707D070BDD4E901213046904781
:10024000206A401C20626D1EF6D570BD70B5044654
:1002500085690078C00707D170BDD4E9012120204D
:100260009047206A401C20626D1EF6D570BD0000CC
:100270002DE9F0410646002410687529314616A57F
:1002800010D0AFF30080002802DA404213A507E047
:1002900031688A0701D512A502E0490704D511A5E6
:1002A000012401E0AFF3008000210A2206F12407B7
:1002B00009E0B0FBF2FCB0FBF2F302FB1C003030B3
:1002C00078541846491C0028F3D123462A46304664
:1002D000BDE8F04100F047B9000000002D0000002B
:1002E0002B000000200000002DE9F05F8946044645
:1002F0004FF0000ADFF874B1FB44C0F820A020469C
:10030000E1688847002874D0252806D0D4E9012167
:100310009047206A401C2062F1E700265F46204695
:10032000E16888472028054607DB312D05D278197A
:1003300010F8200C08B10643F1E7B00701D526F00C
:100340000406C4F81CA00027C4F818A02A2D09D060
:10035000284602F024F938B304EB8708303DC8F88A
:10036000185019E059F8041B204604EB87029161EC
:10037000E1688847012F054618D1E069002820DA96
:1003800026F020061DE0D8F8180000EB800005EBF1
:1003900040003038C8F818002046E1688847054614
:1003A00002F0FDF80028EED1012F0AD02E2D08D141
:1003B0002046E16888477F1C0546022F46F020064C
:1003C000C4DBA069002803DA404246F00106A061C0
:1003D000F00701D026F010066C2D0BD0682D09D047
:1003E0004C2D39D06A2D35D0742D35D07A2D33D09F
:1003F00016E038E0E1682F4620468847B8420546B7
:1004000009D16C2F26D04FF48060E1680643204666
:100410008847054604E06C2F1AD04FF480700643DD
:100420000DB3A5F14100192802D8203546F4006625
:100430004A462946204626604E46FFF791FE80B187
:1004400001280BD0F61D26F0070000F1080956E739
:100450004020E4E78020D8E70020D6E706F1040931
:100460004DE7284652E7206ABDE8F09F2A45000084
:1004700010B5431C02E010F8011B71B18107FAD1DD
:100480004FF0013202C88C1A8C4314EAC211F9D021
:10049000C01A0A0603D0C01E10BDC01A10BD0A043F
:1004A00001D0801E10BD0902FCD0401E10BD10B549
:1004B000203AC0F00B80B1E81850203AA0E818505C
:1004C000B1E81850A0E81850BFF4F5AF5FEA027C1D
:1004D00024BFB1E81850A0E8185044BF18C918C08C
:1004E000BDE810405FEA827C24BF51F8043B40F82D
:1004F000043B08BF7047D20728BF31F8023B48BF12
:1005000011F8012B28BF20F8023B48BF00F8012B4F
:1005100070474FF0000200B51346944696462039C6
:1005200022BFA0E80C50A0E80C50B1F12001BFF4AC
:10053000F7AF090728BFA0E80C5048BF0CC05DF812
:1005400004EB890028BF40F8042B08BF704748BF60
:1005500020F8022B11F0804F18BF00F8012B7047D4
:100560007047704770472DE9F0470D46994692460F
:10057000044600F124080168880604D5E06921F0EA
:100580001001216000E00120A84201DD471B00E0CE
:100590000027A1697A1902EB0900081AA0612078E6
:1005A000C00602D42046FFF73BFE002608E0D4E94F
:1005B00001211AF806009047206A401C761C206230
:1005C0004E45F4DB2078C0060AD52046FFF728FE0A
:1005D00006E0D4E9012130209047206A401C2062C7
:1005E000381EA7F10107F4DC07E0D4E9012118F86F
:1005F00005009047206A401C2062281EA5F10105D5
:10060000F3DC2046FFF722FE2078000602D5022008
:10061000BDE8F0870120FBE701694A1C0261087808
:10062000704700B58FB0CDE9013100210591054932
:100630007944CDE9031011466846FFF755FE0FB027
:1006400000BD0000E5FFFFFF0A6802F8010B0A6029
:100650007047754600F02CF8AE46050069465346D3
:1006600020F00700854618B020B5FFF79FFDBDE8D4
:1006700020404FF000064FF000074FF000084FF009
:10068000000B21F00701AC46ACE8C009ACE8C0099A
:10069000ACE8C009ACE8C0098D46704710B5044607
:1006A000AFF300802046BDE81040FFF76BBD0000AF
:1006B000004870477C05002001491820ABBEFEE7CA
:1006C000260002007047FEE71FB50020019002904F
:1006D0000390402000906946014800F0A5FB1FBD33
:1006E000000801401FB5002002904020009001202A
:1006F00001900320054C03906946204600F094FBCE
:1007000001224021204600F084FC1FBD000801406A
:10071000002100EB800001E000BF491CB1EB400F5D
:10072000FAD3704710B504468C2000F079F800F039
:100730000F01000900EB800001EB400020708820D1
:1007400000F06EF800F00F01000900EB800001EBF3
:1007500040006070862000F063F800F00F0100098F
:1007600000EB800001EB4000A0708A2000F058F8F8
:1007700000F00F01000900EB800001EB4000E07089
:10078000842000F04DF800F00F01000900EB80001C
:1007900001EB40002071822000F042F800F00F01D0
:1007A000000900EB800001EB40006071802000F048
:1007B00037F800F00F01000900EB800001EB40006A
:1007C000A07110BD7FB50020029080200124CDE9EA
:1007D00000040320114D03906946284600F024FBD5
:1007E0004020CDE900046946284600F01DFB20208A
:1007F000CDE900046946284600F016FB002280215E
:10080000284600F006FC00222021284600F001FCCA
:1008100000224021284600F0FCFB7FBD000801407B
:100820002DE9F041394C002540F001072A462021EE
:10083000204600F0EEFB0120FFF76AFF0022802136
:10084000204600F0E6FB0120FFF762FF0122202195
:10085000204600F0DEFB0120FFF75AFF0026F807D4
:1008600001D0012200E000224021204600F0D1FB0F
:100870000120FFF74DFF01228021204600F0C9FB37
:100880000120FFF745FF00228021204600F0C1FB38
:100890000120FFF73DFF761C7F08F6B2082EDED35D
:1008A000FFF712FF0120FFF733FF00266D084021FC
:1008B000204600F0A9FB08B145F080050120FFF7B4
:1008C00027FF01228021204600F0A3FB0120FFF733
:1008D0001FFF00228021204600F09BFB0120FFF734
:1008E00017FF761CF6B2082EE0D3FFF7FBFE0120BF
:1008F000FFF70EFF00222021204600F08AFB012096
:10090000FFF706FF2846BDE8F0810000000801401F
:1009100070B5054600218E2000F064F828780A247E
:10092000B0FBF4F104FB1101B0FBF4F041EA00105C
:10093000C1B28C2000F056F86878B0FBF4F104FBEB
:100940001101B0FBF4F041EA0010C1B2882000F0C0
:1009500049F8A878B0FBF4F104FB1101B0FBF4F006
:1009600041EA0010C1B2862000F03CF8E878B0FB04
:10097000F4F104FB1101B0FBF4F041EA0010C1B244
:100980008A2000F02FF82879B0FBF4F104FB110164
:10099000B0FBF4F041EA0010C1B2842000F022F86C
:1009A0006879B0FBF4F104FB1101B0FBF4F041EA0B
:1009B0000010C1B2822000F015F8A879B0FBF4F164
:1009C00004FB1101B0FBF4F041EA001000F07F01DC
:1009D000802000F007F8BDE8704080218E2000F0F4
:1009E00001B800002DE9F041344C0E4607460022C4
:1009F0002021204600F00DFB0120FFF789FE002298
:100A00008021204600F005FB0120FFF781FE012236
:100A10002021204600F0FDFA0120FFF779FE002595
:100A2000F80701D0012200E000224021204600F01A
:100A3000F0FA0120FFF76CFE01228021204600F031
:100A4000E8FA0120FFF764FE00228021204600F032
:100A5000E0FA0120FFF75CFE6D1C7F08EDB2082D67
:100A6000DED30025F00701D0012200E00022402162
:100A7000204600F0CEFA0120FFF74AFE0122802135
:100A8000204600F0C6FA0120FFF742FE0022802136
:100A9000204600F0BEFA0120FFF73AFE6D1C7608F2
:100AA000EDB2082DDED300222021204600F0B1FA5D
:100AB000BDE8F0410120FFF72BBE00000008014017
:100AC000704710B54FF4805000F0A2F94FF4005079
:100AD00000F09EF9BDE810404FF4804000F098B956
:100AE00072B6FEE706490020C8610648016941F078
:100AF00004010161016941F040010161704700009A
:100B0000D000002000200240064A0021D1610649A1
:100B10000A6942F002020A614861086940F0400037
:100B200008617047D000002000200240044B0022E2
:100B3000DA61044A136943F00103136101807047CD
:100B4000D00000200020024014480022C168CB06DB
:100B5000134904D5CA6942F00202CA611022C3686F
:100B60005B0705D5CB6943F00103CB6142F004027A
:100B7000C369DB0707D0CB6943F00403CB61C169CC
:100B800021F00101C161A2F58071013901D0C2607B
:100B90007047C16921F00101C16170470020024026
:100BA000D000002070B5054600F038FA0646114C1A
:100BB00009E0681C07D025B100F030FA801BA8427C
:100BC00001D9032070BDE068C007F2D1E06880065B
:100BD00001D52020E060E068C00605D4E069C007C8
:100BE00002D1E068400703D5FFF7AEFF012070BDDA
:100BF000002070BD0020024030B585B00C4605468F
:100C000000F0DEF80020049000900120CDE90250B1
:100C100004A9684600F036F828B922460023294680
:100C2000022000F08DF800F081F82868A04211D071
:100C30000A4C0948E06000F0C3F804A9684600F0D7
:100C400021F828B9002329460220E26800F078F84C
:100C500000F06CF805B030BDA08601000000002057
:100C600070B5044600F0DAF90546601C02D004486D
:100C70000078044400F0D2F9401BA042FAD370BDC2
:100C8000240000202DE9F047054626480F4601269E
:100C9000017E01290FD00121814601762868DFF805
:100CA00088804CF25034022808D0A2462046FFF734
:100CB00079FFA8B131E00220BDE8F0872046FFF7B8
:100CC00071FF08BB0120FFF70DFF2046FFF76AFF09
:100CD000D8F81010064621F00401C8F810101CE0E6
:100CE0004FF0FF303860AC6811E02046FFF70CFF92
:100CF0005046FFF757FFD8F81010060021F0020108
:100D0000C8F8101001D03C6007E004F58064D5E914
:100D1000020100EB8120A042E7D8002189F81810D9
:100D20003046C9E7D0000020002002400348016996
:100D300041F0800101610020704700000020024066
:100D40002DE9F05F07461C4888460024017E1546C1
:100D50001E46012909D00121814601764CF2503A04
:100D60005046FFF71FFF18B122E00220BDE8F09FB8
:100D7000012F02D0022F00D00427D346DFF83CA079
:100D8000220128463146FFF723FA81B208EB4400DE
:100D9000FFF7CCFE5846FFF705FFDAF8102022F0E7
:100DA0000102CAF8102018B9641CE4B2BC42E7D3AF
:100DB000002289F81820D9E7D00000200020024046
:100DC000064900200A69120607D5054A4A60054A05
:100DD0004A600969090600D50120704700200240D9
:100DE00023016745AB89EFCD0121084AB0F5805F4B
:100DF00007D0B0F5005F06D0B0F5804F00D19170FC
:100E0000704711707047517070470000000000205B
:100E1000044910B50A68024202D00860FFF7E4FFF7
:100E200010BD0000140401402DE9F84FDFF8B8911F
:100E30000024A9F1040B23460F2709F1040AABF1A2
:100E4000040EC9E00125A5402A40AA427DD1674E83
:100E5000D1F804C0ACEB0608B44532D014DCBCF1C8
:100E6000030F3AD009DCBCF1000F2AD0BCF1010F0E
:100E70001CD0BCF1020F31D11DE0BCF1110F17D015
:100E8000BCF1120F2AD119E0B8F5881F19D006DC81
:100E9000B8F5803F15D0B8F5801F1FD111E0B8F527
:100EA000001F0ED0B8F5041F18D10AE0CB6815E07A
:100EB000CB681B1D12E0CB6808330FE0CB680C3306
:100EC0000CE08B682BB1012B4FF0080303D0456178
:100ED00004E0042302E0056100E00023FF2A01D8BA
:100EE000064601E000F104064FEA840501D9A5F1A8
:100EF0002005D6F8008007FA05FC28EA0C0803FA5A
:100F000005F548EA0508C6F800804D68ED0062D591
:100F1000374DAE6946F00106AE61AD6924F00306B7
:100F200005F001050095334D06EB050CDCF8085083
:100F3000A607360F07FA06F825EA0805DFF8B88095
:100F4000404503D14FF0000817E044E0DFF8AC80E3
:100F5000404502D14FF001080FE0DFF8A480404582
:100F600002D14FF0020808E0DFF89880404502D136
:100F70004FF0030801E04FF0040808FA06F848EAC9
:100F80000508CCF808804D68D9F80060ED024D46A0
:100F900001D5164300E096432E604D68DAF80060F4
:100FA000AD02554601D5164300E096432E604D68CC
:100FB000DBF80060AD035D4601D5164300E09643C3
:100FC0002E604D68DEF80060ED03754601D51643CE
:100FD00000E096432E60641C0D682A46E5407FF4CD
:100FE00031AFBDE8F88F0000080401400000111087
:100FF000001002400000014000080140000C0140C8
:1010000000100140001401408068084000D0012019
:1010100070470AB1016170470904FBE70148806825
:1010200070470000240000200248816802781144C3
:101030008160704724000020074810B5016841F026
:1010400010010160032000F075F80F2000F006F891
:1010500000F024F8002010BD0020024070B50D4DB6
:1010600004464FF47A712878B1FBF0F00A49096818
:10107000B1FBF0F000F0DCFA48B9102C07D20022E6
:101080002146501E00F036F800206C6070BD012033
:1010900070BD000024000020300000200C4808B57E
:1010A000816941F001018161816901F001010091D3
:1010B000C16941F08051C161C06900F08050009069
:1010C0000448416821F0E06141F00071416008BDD1
:1010D0000010024000000140002809DB00F01F0260
:1010E000012191404009800000F1E020C0F800118A
:1010F00070470000F0B40E4B1B680C46C3F302238C
:10110000C3F10705042D00D90425191D072901D2B3
:10111000002300E0DB1E012606FA05F1491E2140EE
:1011200099409E40761E16403143F0BC01F027BA2C
:101130000CED00E0064900F0070208684FF6FF03D7
:10114000184040EA0220034A10430860704700003C
:101150000CED00E00000FA052DE9F0470F46050010
:1011600061D0434E306800F00700B84209D23068C1
:1011700020F0070038433060306800F00700B842C4
:1011800051D128683B4C810712D5400703D56068D0
:1011900040F4E06060602878000703D5606840F4A0
:1011A000605060606068A96820F0F00008436060EB
:1011B0002878C00728D06868012810D02168022844
:1011C00010D0890700292EDA616821F0030101435C
:1011D0006160FFF723FF804641F288390DE0216806
:1011E0008903EFE78901EDE7FFF718FFA0EB08019E
:1011F000494502D90320BDE8F0876068696800F0BE
:101200000C00B0EB810FEFD1306800F00700B8425E
:101210000BD9306820F0070038433060306800F0A8
:101220000700B84201D00120E5E72878400705D53E
:101230006068E96820F4E06008436060287800078F
:1012400006D56068296920F4605040EAC1006060FA
:1012500000F038F86168084AC1F30311515CC840D6
:101260000649086006480068FFF7F8FE0020C2E75C
:101270000020024000100240262E0008300000200E
:10128000280000200448054900684968044AC1F361
:101290000221515CC840704730000020001002401D
:1012A000362E00080448054900684968044AC1F31D
:1012B000C221515CC840704730000020001002403D
:1012C000362E00080E4A51680E4801F00C03042B1C
:1012D00011D0082B0FD10C48C1F38343C903C05C64
:1012E0000AD55168084AC1F34041921E515C054A33
:1012F0005043B0FBF1F07047044948437047000089
:101300000010024000127A00162E000800093D006D
:101310002DE9F84F040070D02078C04DC00749D0A7
:101320006868C0F38100012807D06868C0F38100B5
:10133000022809D16868C00306D52868800339D51A
:1013400060680028E7D035E06068B0F5803F0BD0DA
:1013500010B1B0F5A02F11D0286820F4803028609B
:10136000286820F4802002E0286840F4803028605B
:10137000606890B1FFF752FE06460AE0286840F424
:1013800080202860F0E700BFFFF748FE801B64283C
:1013900073D828688003F7D50CE0FFF73FFE0646B8
:1013A00005E000BFFFF73AFE801B6428F0D82868EC
:1013B0008003F7D420789A4E80074FF001094FF050
:1013C000000839D5686810F00C0F07D06868C0F3C2
:1013D0008100022809D16868C00306D42868800704
:1013E00014D52069012808D110E02069B0B1C6F8F1
:1013F0000090FFF713FE074605E00AE1FFF70EFE37
:10140000C01B0228C4D828688007F7D528686169FE
:1014100020F0F80040EAC10028600DE0C6F8008026
:10142000FFF7FCFD074604E0FFF7F8FDC01B0228AC
:1014300023D828688007F7D4207800072CD579486E
:10144000A169D9B1C0F80090FFF7E8FD074604E0B4
:10145000FFF7E4FDC01B02280FD8686A8007F7D5A4
:1014600071484FF4FA510068B0FBF1F0009000BFF2
:101470000098411E0091FAD20EE080E0C0F8008092
:10148000FFF7CCFD074604E0FFF7C8FDC01B0228AC
:1014900075D8686A8007F7D42078400760D5E86976
:1014A0000027C00008D4E86940F08050E861E8698E
:1014B000012700F0805000905C480168C90513D4F2
:1014C0000168834641F480710160FFF7A7FD824601
:1014D00006E000BFFFF7A2FDA0EB0A0064284ED88B
:1014E000DBF80000C005F5D5E06801280AD008B196
:1014F000052813D0286A20F001002862286A20F00D
:10150000040002E0286A40F001002862E06841F22D
:10151000883B98B1FFF782FD82460BE0286A40F0D5
:1015200004002862EEE700BFFFF778FDA0EB0A0198
:1015300059455AD8286A8007F6D50CE0FFF76EFDAA
:10154000824605E0FFF76AFDA0EB0A0159454CD839
:10155000286A8007F6D41FB1E86920F08050E8615E
:10156000E06988B36968C1F38101022944D0022887
:10157000C6F8608004D0FFF751FD044638E034E03F
:10158000FFF74CFD074604E0FFF748FDC01B0228AB
:101590002BD828688001F7D4206AB0F5803F05D1A8
:1015A0006868A16820F4003008436860D4E9080145
:1015B0000843696821F4741108436860C6F86090B4
:1015C000FFF72CFD044606E025E000BFFFF726FDEF
:1015D000001B022809D828688001F7D51BE000BF4E
:1015E000FFF71CFD001B022802D90320BDE8F88F7D
:1015F00028688001F4D40EE00128F7D06868226AD8
:1016000000F48031914204D1616A00F47010884284
:1016100001D00120EAE70020E8E7000000100240C6
:10162000000042428004424230000020007000402E
:1016300010B5401EB0F1807F01D3012010BD4FF0E6
:10164000E02460610F21601700F099FF0020A06185
:1016500007202061002010BD7047704770B590F8DA
:101660003C20012A26D0012480F83C40022280F848
:101670003D2003685A689D6822F070060A6832436C
:101680005A600D4B02689A4208D0B2F1804F05D0E3
:101690000A4B9A4202D00A4B9A4204D1496825F07B
:1016A00080031943916080F83D40002180F83C1090
:1016B000084670BD022070BD002C014000040040AF
:1016C0000008004010B5040003D094F83D0010B1AC
:1016D00007E0012010BD002084F83C00204600F007
:1016E0001FF8022084F83D00211D206800F0E4FD71
:1016F000012084F8460084F83E0084F83F0084F816
:10170000400084F8410084F8420084F8430084F8E3
:10171000440084F8450084F83D00002010BD00001E
:1017200008B500680B49884212D10B48816941F421
:10173000006181618069002200F400600090114620
:101740001920FFF7D7FCBDE808401920FFF7C4BCFB
:1017500008BD0000002C01400010024090F83D1030
:10176000012901D001207047022180F83D10016855
:10177000CA6842F00102CA6000680B49884208D07A
:10178000B0F1804F05D00949884202D0084988420B
:1017900004D1816801F00701062903D0016841F0F6
:1017A0000101016000207047002C0140000400404E
:1017B0000008004070B5044690F83C000025012860
:1017C00017D0012684F83C60022084F83D00206890
:1017D000826822F0770222F47F42826008685028F3
:1017E00038D00DDC20284FD005DC90B3102811D163
:1017F0004AE0022070BD302846D040280AD13BE0A4
:1018000060282FD070280DD0B0F5805F03D0B0F5E0
:10181000005F12D0012584F83D60002084F83C0070
:10182000284670BDCB68D1E90121206800F080FD19
:101830002068816841F0770109E0CB68D1E9012196
:10184000206800F075FD2068816841F48041816066
:10185000E1E719E0CA684968206800F07BFD502183
:10186000206806E0CA684968206800F084FD6021AD
:10187000206800F067FDCEE7CA684968206800F07C
:1018800069FD40212068F4E7226801461046F0E730
:1018900070472DE9F04104460068C66805694FF0BD
:1018A0000007A90713D5B10711D5F91E0161012061
:1018B0002077206880698007204602D0FFF7E8FF84
:1018C00004E000F07EF8204600F07CF827776807F7
:1018D00016D5700714D521686FF004000861022046
:1018E00020772068806910F4407F204602D0FFF7FF
:1018F000CFFF04E000F065F8204600F063F827779A
:10190000280715D5300713D521686FF00800086146
:10191000042020772068C0698007204602D0FFF7A6
:10192000B7FF04E000F04DF8204600F04BF82777B1
:10193000E80616D5F00614D521686FF0100008618E
:10194000082020772068C06910F4407F204602D02C
:10195000FFF79EFF04E000F034F8204600F032F874
:101960002777E80708D0F00706D021686FF001005C
:101970000861204600F028F8280608D5300606D56C
:1019800021686FF0800008612046FFF765FE680659
:1019900008D5700606D521686FF040000861204622
:1019A00000F01EF8A8060AD5B00608D521686FF029
:1019B000200008612046BDE8F041FFF74EBEBDE8BB
:1019C000F08170477047000000680349884202D1E7
:1019D0000249012008707047002C014023000020BC
:1019E000704770B5040004D094F84100002510B190
:1019F00006E0012070BD84F84050204600F024F835
:101A0000242084F841002068C16821F40051C1609D
:101A1000204600F0E9FC2068016921F49041016151
:101A20002068416921F02A0141612068C16841F4C0
:101A30000051C1606564202084F8410084F84200B0
:101A40006563002070BD000030B585B000240094AF
:101A500001940294039400681449884223D11448E5
:101A6000C16941F40031C161C16901F400310491DF
:101A7000816941F00401816180690E4D00F004002C
:101A800004900420009002200190032003906946F6
:101A90002846FFF7C9F90820CDE900046946284621
:101AA0000294FFF7C1F905B030BD000000440040CA
:101AB00000100240000801402DE9F843044690F868
:101AC0004100984616460D46202802D00220BDE867
:101AD000F88385B17EB100206064212084F8410044
:101AE000FFF79CFAA6848146E684A0682027B0F51B
:101AF000805F02D003E00120E9E7206910B12E46A3
:101B000000250EE000260CE08021204600F0C8FCF5
:101B1000A8B9C6B116F8010B21684860E08C401ED8
:101B2000E084E08C4B464FF00002CDF800800028A6
:101B3000EAD14FF04001204600F0B2FC40B184F8F9
:101B400041700320C3E735F8020BC0F30800E3E758
:101B500084F841700020BAE7002201210148FFF714
:101B600058BA000000080140AFF300802DE9F041B1
:101B70001B4D0746002402212846FFF745FA01289D
:101B8000F9D00026012211462846FFF742FA6400E8
:101B900002212846FFF738FA012801D144F0010458
:101BA000002201212846FFF734FA761CF6B2182EDF
:101BB000E8D3200201D544F07F4400260BE0012247
:101BC00011462846FFF725FA002201212846FFF793
:101BD00020FA761CF6B2BE42F1D32046BDE8F08171
:101BE000000801400149886070470000340000206F
:101BF00010B501F0E5F80149886010BD70050020BE
:101C0000FEE7000070B501220E4D940321462846E0
:101C1000FFF7FFF90122560331462846FFF7F9F98D
:101C200000F048F8002221462846FFF7F2F900F0BC
:101C300041F8002231462846FFF7EBF9BDE8704035
:101C400000F038B80010014070B50B4D4FF48044DF
:101C5000002221462846FFF7DCF9012251032846DD
:101C6000FFF7D7F900F026F821462846BDE8704076
:101C70000122FFF7CEB900000010014070B50C4CF6
:101C8000012291032046FFF7C4F900F013F8012266
:101C9000550329462046FFF7BCF900F00BF8002257
:101CA00029462046FFF7B5F9BDE8704000F002B8BC
:101CB000001001400320401EC0B2FCD2704700005B
:101CC0002DE9F04F85B000253E480095019502951D
:101CD0000395816941F010018161816901F0100172
:101CE0000491816941F020018161816901F0200145
:101CF0000491816941F004018161816901F004016D
:101D00000491816941F0080181618069DFF8B89030
:101D100000F008004FF4C0440490012221464846D8
:101D2000FFF777F9DFF8A4B048F2E107012239465E
:101D30005846FFF76EF9DFF898A04FF400480122EB
:101D400041465046FFF765F9009401240326CDE98A
:101D50000246694648460194FFF766F8CDE90074EB
:101D6000CDE9024669465846FFF75EF8022700971C
:101D7000CDE9015469465846FFF756F84FF4E04064
:101D800000901448CDE9010469465046FFF74CF82D
:101D9000CDE90084CDE9024669465046FFF744F894
:101DA00020028DE8A10069465846FFF73DF8002261
:101DB00011462820FFF79EF92820FFF78DF905B07E
:101DC000BDE8F08F00100240001001400008014003
:101DD000000C01400000211010B586B00024184806
:101DE00000940194029403940494144905940160AE
:101DF00041F61F41C0E9011442F20F71C0E903141A
:101E00008021C0E90541FFF75DFC08B1FEF768FEDF
:101E10004FF48050009069460948FFF7CBFC08B1A9
:101E2000FEF75EFE049404A905480594FFF716FC2E
:101E3000002801D0FEF754FE06B010BD002C014072
:101E4000400000200C4810B50A4901604FF4E13110
:101E50004160002181600C22C160C0E904128161EF
:101E6000C161FFF7BEFD002803D0BDE81040FEF7BA
:101E700037BE10BD0044004088000020FEE7FEE7AA
:101E800030B40021084B0A465FF0000003EBC004A9
:101E9000401CC0B262548028F8D3491CC9B208293A
:101EA000F2D330BC00F08EB8F000002030B5CC0882
:101EB00001F0070301259D40EBB2064D05EBC0057F
:101EC000C808285C0AB1184302E063EA0000C04376
:101ED000285530BDF000002010B50021AE2000F0E4
:101EE0006CF90021084600F068F90021102000F08C
:101EF00064F90021402000F060F90021812000F009
:101F00005CF90021CF2000F058F90021A12000F059
:101F100054F90021C82000F050F90021A62000F05B
:101F20004CF90021A82000F048F900213F2000F0E2
:101F300044F90021D32000F040F90021084600F0C8
:101F40003CF90021D52000F038F90021802000F074
:101F500034F90021D92000F030F90021F12000F0FF
:101F60002CF90021DA2000F028F90021122000F0DD
:101F700024F90021DB2000F020F90021302000F0BE
:101F80001CF90021202000F018F90021022000F0A7
:101F900014F900218D2000F010F90021142000F028
:101FA0000CF9FFF76DFF0021BDE81040AF2000F0F5
:101FB00004B90246012000E05043491EC9B2FBD2D9
:101FC0007047000070B5184E002400BF04F1B00047
:101FD000C0B2002100F0F1F80021084600F0EDF851
:101FE0000021102000F0E9F8FFF70CFE782000F047
:101FF00001F9FFF743FE402000F0FCF8FFF73EFE3A
:102000005FF0000506EBC500005D00F0F3F8FFF798
:1020100035FE6D1CEDB2802DF4D3FFF715FE641C68
:10202000E4B2082CD2D370BDF00000202DE9FC4FA3
:102030001C460E4682468B460190082B0DD0600749
:1020400000D0012000EBD40061084843C0B28146B3
:10205000203AD0B2009000204BE00620F7E7082C91
:1020600013D00C2C18D0102C1BD0182C44D1009855
:10207000234900EBC00000BF01EB8001002711F8ED
:102080000850E80712D00B9A13E000981D4900EBA6
:10209000400001EB4001F1E700981B4900EB4000D4
:1020A000EAE71A49009801EB0011E7E70B9828B31B
:1020B000002231465046FFF7F9FE761C7F1C6D0862
:1020C000FFB2F6B2082FDCD30AF1010000F0FF0ADC
:1020D000082C0AD00199AAEB0100B0EB540F04D1EF
:1020E0000BF108008A4600F0FF0B08F101005E4684
:1020F000C0B280464845B2D3BDE8FC8F0122D8E784
:10210000CA3A00083E2E000866300008DA3400089B
:102110002DE9F84F0025DDE90A691F4692468B46F6
:102120008046082E00D1022500241CE0381B401EEA
:10213000C1B20A20FFF73DFFBAFBF0F00A21B0FB65
:10214000F1F201FB1200CDF8009080B13030C2B244
:1021500005EB560101FB0480C0B233465946FFF738
:1021600065FF641CE4B2BC42E0D3BDE8F88F05EB28
:10217000560101FB0480C0B233463022EEE72DE960
:10218000F8411E46154688460446079F0BE0334635
:10219000414620460097FFF749FF082E0AD004EB7E
:1021A0005600C4B26D1C2A78A2F120005E28EED938
:1021B000BDE8F881A41DE4B2F4E770B50C4605460D
:1021C000FFF720FD782000F015F8FFF757FD0CB160
:1021D000402000E0002000F00DF8FFF74FFD2846FA
:1021E00000F008F8FFF74AFDBDE87040FFF72CBD8E
:1021F000704770472DE9F041124F002405464FF417
:1022000080487E14280601D5012200E000224146C4
:102210003846FEF7FEFEFFF74DFD012231463846F7
:10222000FEF7F7FEFFF746FD002231463846FEF77F
:10223000F0FE6806641C050EE4B2082CE2D3BDE88B
:10224000F081000000100140FEF7EEBE30B58FB007
:1022500028216846FEF75DF914210AA8FEF759F90E
:1022600001210804CDE90010002402940225049104
:10227000CDE907504FF4E01009906846FFF748F8A1
:1022800008B172B6FEE70F20CDE90A054FF4806071
:10229000CDE90C4002210AA80E94FEF75DFF00284C
:1022A00001D072B6FEE70FB030BD70470148FFF7AE
:1022B000F0BA000040000020F0B50268194B1A4C3B
:1022C0001A4D4FF08047984205D0B84203D0A04243
:1022D00001D0A84203D122F070064A6832439842E6
:1022E00005D0B84203D0A04201D0A84203D122F4C5
:1022F0004074CA6822434C6922F080022243026083
:102300008A68C2620A688262984201D109690163DF
:10231000012141610169C90703D0016921F001016F
:102320000161F0BD002C01400004004000080040A5
:1023300010B5846842EA032224F47F440A4322430E
:10234000826010BD826822F070020A4342F00701E9
:102350008160704710B5036A046A24F001040462C6
:10236000846924F0F00444EA021423F00A020A43C8
:102370008461026210BD10B5036A046A24F010047F
:102380000462846923F0A00324F4704444EA023216
:1023900043EA01118261016210BD01680C3151E80C
:1023A000002F22F4907241E80023002BF5D1016840
:1023B000143151E8002F22F0010241E80023002BE4
:1023C000F5D1016B012909D101680C3151E8002FC9
:1023D00022F0100241E80023002BF5D1202180F8E3
:1023E000421000210163704770B50446006801691E
:1023F000E26821F44051114301612169A06808435A
:10240000616908432168CA6841F20C639A43024338
:10241000CA6020684169A26921F440711143416199
:102420001E492068884202D1FEF73CFF01E0FEF71A
:1024300029FF00EBC00101EB0012606864218000FD
:10244000B2FBF0F3B3FBF1F36FF018067343B2FB8A
:10245000F0F5B2FBF0F605EB8305322303EB05152F
:10246000B5FBF1F5B6FBF1F605F0F00505EB061549
:10247000B2FBF0F6B2FBF0F0B0FBF1F06FF0180237
:10248000504306EB800003EB0010B0FBF1F0216835
:1024900000F00F002844886070BD00000038014043
:1024A0002DE9F843984617460D460446089E24E059
:1024B000701C22D0FEF7B2FDA0EB0800B0421AD883
:1024C000CEB12068C168490717D5802D15D0402DA1
:1024D00013D00168C94309070FD40168002540687B
:1024E00000902046FFF759FF0820606484F84050B0
:1024F0000120BDE8F8830320FBE72068006835EA87
:10250000000004D00020B842D2D00020F1E7012022
:10251000F9E7000000B58FB004A8FEF703F99DF8B5
:1025200013009DF816309DF815209DF814108DE8C5
:102530000F009DF811309DF8102008A106A8FDF7A6
:102540005BFE012000210090082306AA0846FFF741
:1025500016FEFFF737FD0FB000BD0000323025300A
:1025600032642D253032642D2530326420253032FE
:10257000643A253032643A2530326400FEE70907B8
:10258000090E002804DB00F1E02080F800147047F9
:1025900000F00F0000F1E02080F8141D7047303883
:1025A0000A2801D20120704700207047A8B0FEF72A
:1025B00043FDFFF74BFEFFF783FBFFF743FCFFF7FD
:1025C0000BFCFFF789FCFEF7FDF8FFF7C5FAFE48A4
:1025D000FFF708FBFD48FFF70BFB1A208DF878008A
:1025E00003218DF879108DF87B000C208DF87C008C
:1025F00000258DF87D508DF87E501EA8FEF788F9D5
:10260000F3480068F34CDFF8D0B3DFF8D093E06014
:10261000411C03D0484501D3584505D94946EC48EB
:10262000C4F80C90FEF7E8FA0026B0463746FFF7EC
:10263000C9FCEB48FFF792F84FF0010A207848B147
:1026400025706420FEF70CFB4FF48051E548FEF73F
:10265000DBFC48B1B6B16078002878D06570E078CE
:1026600070B3012838D098E03EB3E078C8B10128B3
:10267000F1D1D8481C30FEF74BF9FFF701FCFFF70A
:10268000A1FC00266078002878D06570607A002868
:1026900075D0A07A002873D0012872D0022871D199
:1026A00073E1CB48E168FEF7A7FA84F803A0C948B4
:1026B00025711C30FEF736F8CDE70126E570F6E708
:1026C000E1684944E160594501D9C4F80CB0C048FB
:1026D000E168FEF791FA60E0FEF7A0FC6169401A3C
:1026E000B0F5967F20794ED2062853D2DFE800F06D
:1026F000030E1924303BB74964221C310878401C72
:10270000B0FBF2F302FB1300087043E0B1480C2168
:102710001C304278B2FBF1F301FB1321491C4170DC
:1027200038E0AC491F201C31CA78B2FBF0F300FB43
:102730001320401CC8702DE0A64917221C310879CF
:10274000B0FBF2F302FB1300401C087122E027E00B
:10275000A0483B211C304279B2FBF1F301FB13216D
:10276000491C417116E09B493B201C318A79B2FB20
:10277000F0F300FB1320401C88710BE014E10DE125
:10278000F1E0F9E00DE10621401CB0FBF1F201FBA4
:1027900012002071FEF742FC60611420FEF760FA1F
:1027A000A07878B3A570E07810B101280BD056E07E
:1027B000E168494553D38948404201448448E16077
:1027C000FEF71AFA4BE02079062848D2DFE800F03D
:1027D000030E1B27323D7F4864221C300178633191
:1027E000B1FBF2F302FB1311017038E079480C22BF
:1027F0001C3041780A31B1FBF2F302FB1311491C82
:1028000041702CE02EE073481F221C30C1781D312E
:10281000B1FBF2F302FB1311491CC1701FE06D48BC
:1028200018221C3001791731B1FBF2F302FB1311AE
:10283000017114E067483C221C3041793B31B1FB07
:10284000F2F302FB1311417109E062483C221C3093
:1028500081793B31B1FBF2F302FB1311817114203A
:10286000FEF7FEF9FFF70CFBE07810B1012827D046
:1028700075E0002108235CA20846CDF800A0FFF710
:102880007EFC08235CA210210020CDF800A0FFF7F9
:1028900076FC0821CDE9001A072310214020E268C8
:1028A000FFF736FC082357A218210020CDF800A01E
:1028B000FFF765FC082357A22021CDF800A04BE0CC
:1028C0000021082356A20846CDF800A0FFF757FCC8
:1028D000182257490EA8FDF7EAFD082355A210213A
:1028E0000020CDF800A0FFF74AFCCDF800A0217928
:1028F0000EA8082350F8212010213020FFF73FFCBC
:10290000082340A218210020CDF800A0FFF737FCD3
:1029100008234BA218214020CDF800A0FFF72FFC80
:1029200008234BA220210020CDF800A0FFF727FCB0
:1029300028481C30C17890F806C0437902798DE8A8
:102940000E104378027845A104A8FDF755FC082332
:1029500004AA2821CDF800A00020FFF710FCFFF703
:1029600031FB6420D6E160791821401CB0FBF1F204
:1029700001FB1200607114E0A0793C21401CB0FB07
:10298000F1F201FB1200A0710BE0E0793C21401C48
:10299000B0FBF1F201FB1200E07102E084F809A043
:1029A000A5721420FEF75CF9A07858B1A570607A82
:1029B00048B1FEF733FBA169401AB0F5967FA07AC3
:1029C0007ED25BE088E084E00AD7233C144DF3FF1D
:1029D00000FC00080000002040420F00A08601001B
:1029E00040000020000C014053657474696E67203C
:1029F0004D6F6465000000005468726573686F6C09
:102A0000643A00004B4559323A2B204B4559333A32
:102A10002D0000004B4559313A54696D65000000A6
:102A200054696D652053657474696E670000000019
:102A3000F02D000843757272656E743A0000000054
:102A40004C6F6E67204B4559323A4E6578740000E2
:102A50004B4559313A4578697400000032302530D1
:102A600032642D253032642D2530326420253032F9
:102A7000643A253032643A253032640020B10128AE
:102A80000BD0022822D112E0617918201731B1FB56
:102A9000F0F200FB1210607118E0A1793C203B318C
:102AA000B1FBF0F200FB1210A0710FE008E0E0793A
:102AB0003C213B30B0FBF1F201FB1200E07105E07C
:102AC000022802D2401CA07200E06572FEF7A6FA4E
:102AD000A0611420FEF7C4F84FF480718F48FEF710
:102AE00093FA012815D04FF0000847460120FFF760
:102AF0003BF827900220FFF737F81D9023A8FDF739
:102B000011FE9FB31D98E368984230D2207A60B1DD
:102B10003AE0B8F1050F06D208F1010000F0FF0815
:102B2000B8F1050FE2D30127E0E77DA168461D9AC1
:102B3000FDF762FB6846FDF79BFC82B24FF47A73A7
:102B400069468748FEF7B8FF00224FF400417348FA
:102B5000FEF75FFA00224FF400418248FEF759FA6F
:102B600084F808A0FEF75AFA20610DE0FFE7207A0A
:102B700050B10122D1036948FEF74BFA0122D1037B
:102B80007848FEF746FA25729DF8901060798142E8
:102B900034D19DF89120A1798A422FD19DF89230AD
:102BA000E27993422AD1237A53BB9DF89230CDE942
:102BB0000030CDE902129DF891309DF890206A49CD
:102BC00004A8FDF719FB04A8FDF752FC82B24FF4EC
:102BD0007A7304A96248FEF76FFF00224FF40041A8
:102BE0004E48FEF716FA00224FF400415D48FEF70A
:102BF00010FA84F808A0FEF711FA2061207A90B14B
:102C0000FEF70CFA2169401A41F2883188420AD352
:102C10000122D1034148FEF7FCF90122D1035148BA
:102C2000FEF7F7F9257251480178D1B30570FFF727
:102C300071FC08234EA210210020CDF800A0FFF760
:102C40009EFA0821CDE9001A0B4610211E20279A72
:102C5000FFF75EFA082348A218210020CDF800A053
:102C6000FFF78DFA0820CDE9000A0346182108462F
:102C70001D9AFFF74DFA082341A220210020CDF82C
:102C800000A0FFF77CFA0820CDE9000A07232021E5
:102C90001020E268FFF73CFAE0790090A3796279AE
:102CA00000E036E037A102A8FDF7A6FA082302AA41
:102CB00028210020CDF800A0FFF761FA3FB10823DA
:102CC00036A220214020CDF800A0FFF758FA607A04
:102CD000B8B1344A0DF11C0C082307CACDF800A086
:102CE0008CE8070030A232210020FFF748FACDF827
:102CF00000A0A07A07A9082351F820203221402003
:102D000005E008232AA232210020CDF800A0FFF719
:102D100036FA0A20FDF7A4FF90E400000008014005
:102D2000414C41524D3A205765696768742062658D
:102D30006C6F77207468726573686F6C64212043D0
:102D4000757272656E743A20256C642C205468721A
:102D50006573686F6C643A20256C640D0A0000008E
:102D600088000020000C01403848000823000020A3
:102D7000413132383A0000004233323A000000005C
:102D800054683A00416C61726D3A20253032643AE1
:102D9000253032643A2530326400000048756D6198
:102DA0006E000000082E00085365743A0000000011
:102DB0004B4559323A416C61726D20536574000085
:102DC00010F0004148BF4042B0FA80F310FA03F21D
:102DD000C3F19D030BD051EAC35101EB12205306FE
:102DE00038BF704700F1010008BF20F001007047B4
:102DF000944800088C480008A44800089C48000833
:102E0000844800087C4800089C4800088448000862
:102E10007C480008010202030405060708090A0BA2
:102E20000C0D0E0F10100000000000000000010249
:102E30000304060708090000000001020304000063
:102E4000000000000000002F000000000700070045
:102E500000147F147F1400242A7F2A120062640861
:102E600013230036495522500000050300000000DE
:102E70001C224100000041221C000014083E0814DE
:102E80000008083E0808000000A0600000080808CC
:102E90000808000060600000002010080402003EE6
:102EA0005149453E0000427F400000426151494681
:102EB000002141454B31001814127F100027454571
:102EC0004539003C4A494930000171090503003683
:102ED0004949493600064949291E00003636000096
:102EE000000056360000000814224100001414149B
:102EF0001414000041221408000201510906003296
:102F00004959513E007C1211127C007F49494936D3
:102F1000003E41414122007F4141221C007F49493E
:102F20004941007F09090901003E4149497A007F72
:102F30000808087F0000417F4100002040413F0118
:102F4000007F08142241007F40404040007F020C77
:102F5000027F007F0408107F003E4141413E007F18
:102F600009090906003E4151215E007F09192946E1
:102F70000046494949310001017F0101003F4040BD
:102F8000403F001F2040201F003F4038403F00636B
:102F9000140814630007087008070061514945438D
:102FA00000007F41410000552A552A55000041414B
:102FB0007F00000402010204004040404040000045
:102FC00001020400002054545478007F48444438DF
:102FD00000384444442000384444487F0038545466
:102FE000541800087E0901020018A4A4A47C007FE4
:102FF000080404780000447D4000004080847D0087
:10300000007F102844000000417F4000007C04182D
:103010000478007C0804047800384444443800FCF8
:10302000242424180018242418FC007C0804040814
:1030300000485454542000043F444020003C404089
:10304000207C001C2040201C003C4030403C0044C0
:1030500028102844001CA0A0A07C004464544C44C8
:1030600014141414141400000000000000000000E8
:1030700000000000FC000000000002000000000C46
:10308000020C020000000000000090D0BCD0BC90F8
:103090000003000300001824FE448C000302070212
:1030A00001001824D8B04C80000300010201C03890
:1030B000E438E000010202010202080600000000FC
:1030C000000000000000000000F804020000000101
:1030D0000204000204F800000004020100009060F5
:1030E000F86090000000010000002020FC2020007B
:1030F00000000100000000000000000008060000C1
:10310000000020202020200000000000000000001F
:10311000000000000002000000000080601C0200AF
:10312000040300000000F8040404F8000102020295
:1031300001000008FC0000000002030200001884E7
:103140004424180003020202020008042424D800C8
:1031500001020202010040B088FC80000000000370
:1031600002003C242424C400010202020100F824CD
:10317000242CC0000102020201000C04E41C040023
:10318000000003000000D8242424D8000102020219
:10319000010038444444F80000030202010000002A
:1031A00010000000000002000000000020000000ED
:1031B000000006000000002050880402000000000B
:1031C000010290909090900000000000000000022A
:1031D000048850200002010000001804C4241800D4
:1031E000000002000000F804E494F800010202026A
:1031F000020000E09CF0800002030000030204FCD7
:103200002424D800020302020100F80404040C0084
:1032100001020202010004FC0404F800020302029D
:10322000010004FC24740C0002030202030004FCED
:1032300024740C00020302000000F0080444CC4097
:1032400000010202010004FC2020FC040203000033
:1032500003020404FC04040002020302020000044E
:1032600004FC040406040403000004FC24D00C0441
:1032700002030200030204FC040000000203020235
:103280000203FC3CC03CFC0003000300030004FC00
:1032900030C4FC04020302000300F8040404F80034
:1032A00001020202010004FC2424180002030200AF
:1032B0000000F8848404F80001020207050004FC01
:1032C00024649800020302000302182424448C00A2
:1032D0000302020201000C04FC040C0000020302C1
:1032E000000004FC0000FC04000102020100047C58
:1032F00080E01C040000030000001CE03CE01C0017
:10330000000300030000049C609C0400020300030F
:103310000200041CE01C04000002030200000C84F4
:10332000641C04000203020203000000FE0202000B
:10333000000007040400000E30C00000000000017F
:103340000200000202FE0000000404070000000466
:103350000204000000000000000000000000000067
:10336000080808080808000002000000000000002B
:1033700000000040A0A0C00000010202030204FC03
:103380002020C00000030202010000C020206000D5
:1033900000010202020000C02024FC000001020221
:1033A000030200C0A0A0C000000102020200002031
:1033B000F82424040002030202000040A0A06020C0
:1033C00000070A0A0A0404FC2020C00002030200CD
:1033D00003020020E40000000002030200000000DD
:1033E00020E4000008080807000004FC80E020201A
:1033F0000203020003020404FC00000002020302B4
:103400000200E020E020C00003000300030020E0F1
:103410002020C00002030200030200C02020C000E0
:1034200000010202010020E02020C000080F0A0273
:10343000010000C02020E0000001020A0F0820E087
:10344000402020000203020000000060A0A0200035
:103450000002020203000020F82000000000010228
:10346000020020E00020E00000010202030220E050
:10347000208060200000030100006080E080600088
:1034800000030003000020608060200002030003AE
:10349000020020E0208060200808070100000020D2
:1034A000A0602000000203020200000020DE0200F3
:1034B000000000070400000000FF00000000000FF3
:1034C00000000002DE2000000004070000000201EE
:1034D00002040402000000000000000000000000E0
:1034E00000000000000000000000000000F80000E4
:1034F0000000000000333000000000100C06100C2B
:103500000600000000000000000040C07840C078C5
:103510004000043F04043F040400007088FC0830AD
:103520000000001820FF211E0000F008F000E01845
:10353000000000211C031E211E0000F008887000FE
:1035400000001E2123241927211010160E00000050
:1035500000000000000000000000000000E018046F
:103560000200000000071820400000020418E000DC
:1035700000000040201807000000404080F080401C
:1035800040000202010F01020200000000F00000F2
:1035900000000101011F0101010000000000000006
:1035A000000080B07000000000000000000000007B
:1035B0000000000101010101010100000000000004
:1035C00000000030300000000000000000008060BB
:1035D0001804006018060100000000E01008081040
:1035E000E000000F102020100F00001010F8000065
:1035F00000000020203F20200000007008080888FC
:1036000070000030282422213000003008888848CB
:1036100030000018202020110E000000C02010F8FB
:10362000000000070424243F240000F808888808CC
:1036300008000019212020110E0000E010888818D1
:103640000000000F112020110E0000380808C838B3
:1036500008000000003F0000000000708808088893
:103660007000001C222121221C0000E0100808101C
:10367000E0000000312222110F00000000C0C00055
:10368000000000000030300000000000008000005A
:10369000000000008060000000000000804020105A
:1036A0000800000102040810200040404040404053
:1036B00040000404040404040400000810204080B6
:1036C00000000020100804020100007048080808EB
:1036D000F0000000003036010000C030C828E810BB
:1036E000E0000718272423140B000000C038E00076
:1036F0000000203C23020227382008F888888870C0
:103700000000203F202020110E00C03008080808CB
:103710003800071820202010080008F808080810B2
:10372000E000203F202020100F0008F88888E808DB
:103730001000203F20202320180008F88888E8087F
:103740001000203F200003000000C03008080838A7
:10375000000007182020221E020008F808000008B8
:10376000F808203F210101213F20000808F808083F
:1037700000000020203F2020000000000808F8087A
:103780000800C08080807F00000008F888C02818EA
:103790000800203F20012638200008F8080000001B
:1037A0000000203F20202020300008F8F800F8F822
:1037B0000800203F003F003F200008F830C000080C
:1037C000F808203F200007183F00E0100808081004
:1037D000E0000F10202020100F0008F8080808084B
:1037E000F000203F210101010000E010080808104E
:1037F000E0000F18242438504F0008F88888888883
:103800007000203F2000030C30200070880808085A
:1038100038000038202121221C00180808F8080868
:1038200018000000203F2000000008F808000008F1
:10383000F808001F202020201F000878880000C8FA
:103840003808000007380E010000F80800F80008EA
:10385000F800033C0700073C0300081868808068F4
:10386000180820302C03032C30200838C800C83832
:1038700008000000203F2000000010080808C83899
:1038800008002038262120201800000000FE020237
:1038900002000000007F40404000000C30C00000EB
:1038A0000000000000010638C00000020202FE0015
:1038B0000000004040407F000000000004020202BF
:1038C00004000000000000000000000000000000F4
:1038D00000008080808080808080000202040000E0
:1038E00000000000000000000000000080808080D8
:1038F00000000019242222223F2008F800808000C6
:103900000000003F112020110E0000000080808088
:103910000000000E1120202011000000008080888F
:10392000F800000E112020103F20000080808080D1
:103930000000001F222222221300008080F08888CD
:1039400088180020203F2020000000008080808018
:103950008000006B94949493600008F8008080804D
:103960000000203F210000203F20008098980000A8
:1039700000000020203F20200000000000809898D8
:10398000000000C08080807F000008F80000808078
:103990008000203F24022D302000000808F800009D
:1039A00000000020203F2020000080808080808058
:1039B0008000203F20003F20003F808000808080EA
:1039C0000000203F210000203F20000080808080F8
:1039D0000000001F202020201F0080800080800029
:1039E000000080FFA12020110E00000000808080D8
:1039F0008000000E112020A0FF8080808000808049
:103A0000800020203F212000010000008080808075
:103A100080000033242424241900008080E080806A
:103A200000000000001F20200000808000000080B7
:103A30008000001F202020103F2080808000008018
:103A4000808000010E300806010080800080008028
:103A500080800F300C030C300F00008080008080CD
:103A600080000020312E0E312000808080000080F8
:103A7000808080818E7018060100008080808080A8
:103A800080000021302C2221300000000000807CCA
:103A9000020200000000003F404000000000FF0064
:103AA000000000000000FF0000000002027C800017
:103AB00000000040403F000000000006010102023B
:103AC00004040000000000000000000000000000EE
:103AD00000000000000000000000000000000000E6
:103AE00000000000000000000000000000000000D6
:103AF000000000F0F0F000000000000000000001F5
:103B00007F010000000000000000001C1C1C0000E1
:103B1000000000008060301C8C60301C0C00000035
:103B20000000000000000000000000000000000095
:103B3000000000000000000000E00000000000E0C5
:103B400000000086E69F86868686E69F8600000146
:103B50001F01010101011F010100000080C0602060
:103B6000F820E0C00000000003070C18FF70E1819E
:103B700000000000070F10107F100F07000080608A
:103B8000206080000000E02000000F3020309F7097
:103B9000DC371030C0000000100E030007181018AA
:103BA00007000000C02020E0C0000000000080E00E
:103BB0001F38E88703C43C040000070F1810100BDF
:103BC000070D1010080000808C4C38000000000029
:103BD00000000000000000000000000000000000E5
:103BE00000000000000000000000000000000000D5
:103BF00080E0300804000000000000FEFF0100002B
:103C00000000000000000000030F18204000000426
:103C10000830E0800000000000000000000001FF0C
:103C2000FE0000000000004020180F03000000000C
:103C30000000000000000000C00000000000004282
:103C400066663C18FF183C666642000000000000F3
:103C500003000000000000000000000080000000E1
:103C60000000001010101010FF10101010100000B5
:103C70000000000003000000000000000000000041
:103C80000000000000000000000000000000000034
:103C9000000000808C4C3800000000000000000094
:103CA00000000000000000000000001010101010C4
:103CB00010101010100000000000000000000000B4
:103CC00000000000000000000000000000000000F4
:103CD0000000000000000000000000001C1C1C0090
:103CE0000000000000000000000000000000E038BC
:103CF0000C000000000080701C0300000000006049
:103D0000380E0100000000000000000080C06020AC
:103D10002060C080000000FEFF010000000001FFE5
:103D2000FE000001070E181010180E070100000019
:103D3000808080C0E000000000000000000000FF64
:103D4000FF000000000000001010101F1F101010D6
:103D500000000080402020202060C0800000000380
:103D60000300804020381F070000001C1A19181893
:103D70001818181F00000080C020202060C080009C
:103D80000000000303001010182FE7800000000758
:103D90000F10101010180F070000000000000000A6
:103DA000C0E0F000000000C0B088868180FFFF8086
:103DB0008000000000000010101F1F101000000005
:103DC000E060606060606060000000003F10080814
:103DD0000818F0E0000000070B101010101C0F0373
:103DE0000000000080C040202020E0C0000000FC57
:103DF000FF211008080818F0E0000001070C181057
:103E00001010080F03000000C0E06060606060E018
:103E10006000000003000000E01807000000000040
:103E20000000001F1F00000000000080C060202074
:103E3000202060C080000087EF2C1818303068CF39
:103E4000830000070F0810101010180F0700000063
:103E5000C0C020202020C0800000001F3F604040E4
:103E6000402010FFFE0000000C1C101010080F0373
:103E70000000000000000000000000000000000042
:103E80000000000E0E0E0000000000000000001CEC
:103E90001C1C0000000000000000000000000000EA
:103EA000000000000000000C0C00000000000000FA
:103EB0000000005838000000000000000000000072
:103EC0000080402010000000102844820100000003
:103ED00000000000000000000102040810000000C3
:103EE000000000000000000000000084848484843E
:103EF000848484848400000000000000000000002E
:103F000000000000102040800000000000000000C1
:103F10000000000001824428100000001008040284
:103F200001000000000000C020201010101030E040
:103F3000C0000003030000F010080C07030000009D
:103F400000001C1C1C0000000000000000C04060BD
:103F500020202040C00000FCFF01F00E03C1FE0342
:103F6000807F0001070E08111110110904020000E2
:103F7000000080E0E000000000000000807C434082
:103F8000477FF880000010181F1000000000131F6A
:103F90001C1020E0E02020202060C080000000FFF6
:103FA000FF10101010182FE78000101F1F101010A6
:103FB0001010180F0700000080C040202020206053
:103FC000E00000FCFF010000000000000100000113
:103FD000070E181010100804030020E0E020202035
:103FE0002040C080000000FFFF000000000001FF33
:103FF000FE00101F1F10101018080E07010020E00F
:10400000E020202020202060800000FFFF10101002
:10401000107C00000000101F1F101010101010184E
:10402000060020E0E020202020206060800000FFCB
:10403000FF101010107C00000100101F1F10000066
:10404000000000000000000080C06020202040E050
:10405000000000FCFF0100004040C0C140400001E2
:10406000070E181010100F0F000020E0E0200000D5
:10407000000020E0E02000FFFF101010101010FFE3
:10408000FF00101F1F1000000000101F1F10000075
:10409000202020E0E020202000000000000000FFA1
:1040A000FF000000000000001010101F1F10101073
:1040B000000000000000202020E0E0202020000080
:1040C0000000000000FFFF0000000060E080808032
:1040D000C07F3F00000020E0E020000020A0602022
:1040E000200000FFFF30187CE3C000000000101F1C
:1040F0001F10000001131F1C181020E0E02000001A
:1041000000000000000000FFFF00000000000000B1
:104110000000101F1F10101010101018060020E0D3
:10412000E0E000000000E0E0E02000FF013FFEC012
:10413000E01E01FFFF00101F1000031F0300101FEF
:104140001F1020E0E0C0000000000020E02000FF81
:104150000003071C78E08000FF00101F1000000023
:104160000000030F1F00000080C060202060C0809E
:10417000000000FEFF010000000000FFFE00000143
:10418000070E181010180C07010020E0E020202076
:10419000202060C0800000FFFF2020202020301F52
:1041A0000F00101F1F1000000000000000000000A2
:1041B00080C060202060C080000000FEFF01000081
:1041C000000000FFFE000001070E1111133C7C6788
:1041D000210020E0E0202020202060C0800000FF9F
:1041E000FF101030F0D0080F0700101F1F10000044
:1041F00000030F1C10100080C060202020204040D1
:10420000E00000070F0C1818303060E08100001F3C
:104210000C0810101010180F07008060202020E0FC
:10422000E020202060800100000000FFFF0000006F
:10423000000100000000101F1F100000000020E01F
:10424000E020000000000020E02000FFFF00000050
:1042500000000000FF0000070F18101010101008D9
:1042600007002060E0E02000000020E06020000067
:10427000077FF88000807C03000000000000071F1B
:104280001C070000000020E0E02000E0E02000200B
:10429000E0200007FFF8E01FFFFCE01F0000000027
:1042A000031F0300011F03000000002060E0A000C6
:1042B0000020E0602000000000038F7CF8C60100B1
:1042C00000000010181E130001171F1810002060B6
:1042D000E0E02000000020E06020000001073EF840
:1042E000E0180700000000000010101F1F10100051
:1042F000000000806020202020A0E0E020000000DE
:104300000000C0F03E0F0300000000101C1F17103B
:104310001010101806000000000000FC0404040443
:1043200004000000000000FF00000000000000008A
:104330000000007F404040404000000010E00000CE
:1043400000000000000000000000031C608000006E
:10435000000000000000000000030C70800000005E
:104360000404040404FC000000000000000000003D
:1043700000FF00000000000040404040407F00007F
:10438000000000000010080C040C081000000000E1
:10439000000000000000000000000000000000001D
:1043A000000000000000000000000000000000000D
:1043B00000000000000000000000000000008080FD
:1043C00080808080808080808080000000040408DD
:1043D00008000000000000000000000000000000D5
:1043E00000000000000000000000000000000000CD
:1043F00000000000000000000000000098D84464A5
:104400002424FCF80000000F1F18101010081F1FB4
:1044100010180020E0F00000000000000000000084
:10442000FFFF180804040CF8F00000001F0F18101C
:104430001010180F03000000000000000000000032
:10444000000000E0F8180404043C380000000003F9
:104450000F0C1010101008060000000000000000F3
:104460000020E0F0000000E0F81C04040408FFFF56
:10447000000000030F18101010081F0F08000000A4
:10448000000000000000000000000000E0F84844C8
:1044900044444C7870000000030F0C1810101008F2
:1044A00004000000000080C0602020E0C000000484
:1044B0000404FFFF040404040000000010101F1F88
:1044C00010101000000000000000000000000000BC
:1044D0000000000070F88C04048CF874040C007068
:1044E00076CF8D8D8D89C87870000020E0F00000B7
:1044F0000000000000000000FFFF08040404FCF8B6
:10450000000000101F1F100000101F1F10000000EF
:10451000000000606000000000000000040404FCD3
:10452000FC000000000000001010101F1F101010F1
:1045300000000000000000000060600000000000BB
:104540000000040404FCFC0000000000C0C08080E7
:10455000C07F3F0000000020E0F0000000000000ED
:1045600000000000FFFF80C0F41C040400000010E5
:104570001F1F1100031F1C1010000000202020E04E
:10458000F000000000000000000000FFFF0000003D
:10459000000000001010101F1F101010000000007D
:1045A0000000000000000000000004FCFC0804FC07
:1045B000FC0804FCFC00101F1F10001F1F10001F30
:1045C0001F100000000000000000000000000004B8
:1045D000FCFC08080404FCF8000000101F1F100079
:1045E00000101F1F1000000000000000000000006D
:1045F000000000E0F0180C04040C18F0E0000003C8
:104600000F0C101010100C0F030000000000000031
:104610000000000000000004FCFC080404040CF886
:10462000F0000080FFFF889010101C0F03000000B6
:104630000000000000000000000000E0F81C04047E
:104640000408F8FC000000030F1810109088FFFF0A
:1046500080000000000000000000000000000404D2
:1046600004FCFC100804040C0C001010101F1F1098
:10467000101000000000000000000000000000001A
:10468000000000003078CCC48484840C1C0000003E
:104690001E1810101011190F06000000000000C0B5
:1046A00000000000000000040404FFFF04040400F4
:1046B0000000000000000F1F1010100C0000000090
:1046C000000000000000000000000004FCFE0000EC
:1046D0000004FCFE000000000F1F181010081F0F40
:1046E00008000000000000000000000000000004BE
:1046F0000C3CFCC40000C43C0C0400000000010F92
:104700001E0E01000000000000000000000000007C
:104710000000043CFCC400E47CFC84807C040000B9
:10472000071F070000071F0700000000000000002F
:104730000000000000000004041C7CE4C0341C04E1
:1047400004000010101C1601131F1C18100000009C
:104750000000000000000000000000040C3CFCC44D
:1047600000C43C0404000000C080C1370E010000FA
:104770000000000000000000000000000000000039
:104780001C0404C4F47C1C0400000000101C1F174F
:10479000111010180E0000000000000000F80C04BA
:1047A000000000000000001028EF000000000000E2
:1047B00000000000003F604000000000000000001A
:1047C000FF0000000000000000000000FF000000EB
:1047D0000000000000000000FF00000000000000DA
:1047E000040CF80000000000000000000000EF28AA
:1047F000100000000000000040603F0000000000CA
:1048000000000018060202040810202030080000F2
:104810000000000000000000000000000000000098
:10482000000000000000040000080000000000007C
:104830000002000100001000414C41524D3A20544A
:10484000696D65206D6174636821204375727265BE
:104850006E743A20253032643A253032643A25307D
:1048600032642C20416C61726D3A20253032643AFA
:10487000253032643A253032640D0A005365636F87
:104880006E6400004D696E75746500004D6F6E7446
:10489000680000005965617200000000486F757281
:1048A0000000000044617900C848000800000020B2
:1048B00040000000280100080849000840000020CE
:1048C000A00B0000440100080000000000000000F0
:1048D00000000000A08601000000000000000000B1
:1048E00000000000000000000000000001000000C7
:1048F000100000000000000000127A000000803F5D
:084900000000803F0000803F31
:04000005080000ED02
:00000001FF
